{
  "contractName": "demo",
  "abi": [
    {
      "inputs": [],
      "payable": true,
      "stateMutability": "payable",
      "type": "constructor"
    },
    {
      "constant": true,
      "inputs": [],
      "name": "proIndex",
      "outputs": [
        {
          "internalType": "uint256",
          "name": "",
          "type": "uint256"
        }
      ],
      "payable": false,
      "stateMutability": "view",
      "type": "function"
    },
    {
      "constant": true,
      "inputs": [
        {
          "internalType": "uint256",
          "name": "",
          "type": "uint256"
        }
      ],
      "name": "proposals",
      "outputs": [
        {
          "internalType": "uint256",
          "name": "id",
          "type": "uint256"
        },
        {
          "internalType": "uint256",
          "name": "agreed",
          "type": "uint256"
        },
        {
          "internalType": "uint256",
          "name": "opposed",
          "type": "uint256"
        },
        {
          "internalType": "string",
          "name": "name",
          "type": "string"
        },
        {
          "internalType": "string",
          "name": "description",
          "type": "string"
        },
        {
          "internalType": "uint256",
          "name": "StartTime",
          "type": "uint256"
        },
        {
          "internalType": "uint256",
          "name": "EndTime",
          "type": "uint256"
        },
        {
          "internalType": "uint256",
          "name": "tot",
          "type": "uint256"
        },
        {
          "internalType": "address payable",
          "name": "proposer",
          "type": "address"
        },
        {
          "internalType": "enum demo.ProposalStatus",
          "name": "prostatus",
          "type": "uint8"
        }
      ],
      "payable": false,
      "stateMutability": "view",
      "type": "function"
    },
    {
      "constant": true,
      "inputs": [
        {
          "internalType": "uint256",
          "name": "",
          "type": "uint256"
        },
        {
          "internalType": "uint256",
          "name": "",
          "type": "uint256"
        }
      ],
      "name": "proposalvote",
      "outputs": [
        {
          "internalType": "address",
          "name": "",
          "type": "address"
        }
      ],
      "payable": false,
      "stateMutability": "view",
      "type": "function"
    },
    {
      "constant": true,
      "inputs": [],
      "name": "voteIndex",
      "outputs": [
        {
          "internalType": "uint256",
          "name": "",
          "type": "uint256"
        }
      ],
      "payable": false,
      "stateMutability": "view",
      "type": "function"
    },
    {
      "constant": true,
      "inputs": [
        {
          "internalType": "uint256",
          "name": "",
          "type": "uint256"
        }
      ],
      "name": "votes",
      "outputs": [
        {
          "internalType": "address",
          "name": "voter",
          "type": "address"
        },
        {
          "internalType": "uint256",
          "name": "proposalid",
          "type": "uint256"
        },
        {
          "internalType": "enum demo.VoteResult",
          "name": "result",
          "type": "uint8"
        }
      ],
      "payable": false,
      "stateMutability": "view",
      "type": "function"
    },
    {
      "constant": false,
      "inputs": [
        {
          "internalType": "string",
          "name": "_name",
          "type": "string"
        },
        {
          "internalType": "string",
          "name": "_description",
          "type": "string"
        },
        {
          "internalType": "uint256",
          "name": "_starttime",
          "type": "uint256"
        },
        {
          "internalType": "uint256",
          "name": "_endtime",
          "type": "uint256"
        }
      ],
      "name": "addProposal",
      "outputs": [],
      "payable": true,
      "stateMutability": "payable",
      "type": "function"
    },
    {
      "constant": false,
      "inputs": [
        {
          "internalType": "uint256",
          "name": "_proid",
          "type": "uint256"
        }
      ],
      "name": "check",
      "outputs": [],
      "payable": true,
      "stateMutability": "payable",
      "type": "function"
    },
    {
      "constant": false,
      "inputs": [
        {
          "internalType": "uint256",
          "name": "_proid",
          "type": "uint256"
        },
        {
          "internalType": "uint256",
          "name": "_result",
          "type": "uint256"
        }
      ],
      "name": "vote",
      "outputs": [],
      "payable": true,
      "stateMutability": "payable",
      "type": "function"
    },
    {
      "constant": true,
      "inputs": [],
      "name": "getDate",
      "outputs": [
        {
          "internalType": "uint256",
          "name": "",
          "type": "uint256"
        }
      ],
      "payable": false,
      "stateMutability": "view",
      "type": "function"
    }
  ],
  "bytecode": "0x60806040526000808190555060006001819055506112a1806100226000396000f3fe6080604052600436106100865760003560e01c80635844398a116100595780635844398a146102f85780635df81330146103235780635f72f450146103ba578063b384abef146103e8578063ffc82ac41461042057610086565b8063013cf08b1461008b57806328a1f9251461021d578063430fe9c1146102a257806358275177146102cd575b600080fd5b34801561009757600080fd5b506100c4600480360360208110156100ae57600080fd5b8101908080359060200190929190505050610586565b604051808b81526020018a815260200189815260200180602001806020018881526020018781526020018681526020018573ffffffffffffffffffffffffffffffffffffffff1673ffffffffffffffffffffffffffffffffffffffff16815260200184600281111561013257fe5b60ff16815260200183810383528a818151815260200191508051906020019080838360005b83811015610172578082015181840152602081019050610157565b50505050905090810190601f16801561019f5780820380516001836020036101000a031916815260200191505b50838103825289818151815260200191508051906020019080838360005b838110156101d85780820151818401526020810190506101bd565b50505050905090810190601f1680156102055780820380516001836020036101000a031916815260200191505b509c5050505050505050505050505060405180910390f35b34801561022957600080fd5b506102606004803603604081101561024057600080fd5b810190808035906020019092919080359060200190929190505050610737565b604051808273ffffffffffffffffffffffffffffffffffffffff1673ffffffffffffffffffffffffffffffffffffffff16815260200191505060405180910390f35b3480156102ae57600080fd5b506102b7610782565b6040518082815260200191505060405180910390f35b3480156102d957600080fd5b506102e261078a565b6040518082815260200191505060405180910390f35b34801561030457600080fd5b5061030d610790565b6040518082815260200191505060405180910390f35b34801561032f57600080fd5b5061035c6004803603602081101561034657600080fd5b8101908080359060200190929190505050610796565b604051808473ffffffffffffffffffffffffffffffffffffffff1673ffffffffffffffffffffffffffffffffffffffff1681526020018381526020018260018111156103a457fe5b60ff168152602001935050505060405180910390f35b6103e6600480360360208110156103d057600080fd5b81019080803590602001909291905050506107ed565b005b61041e600480360360408110156103fe57600080fd5b810190808035906020019092919080359060200190929190505050610928565b005b6105846004803603608081101561043657600080fd5b810190808035906020019064010000000081111561045357600080fd5b82018360208201111561046557600080fd5b8035906020019184600183028401116401000000008311171561048757600080fd5b91908080601f016020809104026020016040519081016040528093929190818152602001838380828437600081840152601f19601f820116905080830192505050505050509192919290803590602001906401000000008111156104ea57600080fd5b8201836020820111156104fc57600080fd5b8035906020019184600183028401116401000000008311171561051e57600080fd5b91908080601f016020809104026020016040519081016040528093929190818152602001838380828437600081840152601f19601f8201169050808301925050505050505091929192908035906020019092919080359060200190929190505050610ea8565b005b6004602052806000526040600020600091509050806000015490806001015490806002015490806003018054600181600116156101000203166002900480601f0160208091040260200160405190810160405280929190818152602001828054600181600116156101000203166002900480156106445780601f1061061957610100808354040283529160200191610644565b820191906000526020600020905b81548152906001019060200180831161062757829003601f168201915b505050505090806004018054600181600116156101000203166002900480601f0160208091040260200160405190810160405280929190818152602001828054600181600116156101000203166002900480156106e25780601f106106b7576101008083540402835291602001916106e2565b820191906000526020600020905b8154815290600101906020018083116106c557829003601f168201915b5050505050908060050154908060060154908060070154908060080160009054906101000a900473ffffffffffffffffffffffffffffffffffffffff16908060080160149054906101000a900460ff1690508a565b6002602052816000526040600020818154811061075057fe5b906000526020600020016000915091509054906101000a900473ffffffffffffffffffffffffffffffffffffffff1681565b600042905090565b60005481565b60015481565b60036020528060005260406000206000915090508060000160009054906101000a900473ffffffffffffffffffffffffffffffffffffffff16908060010154908060020160009054906101000a900460ff16905083565b600060028111156107fa57fe5b6004600083815260200190815260200160002060080160149054906101000a900460ff16600281111561082957fe5b1461083357600080fd5b60006004600083815260200190815260200160002090504281600601541015610924578060020154816001015411156108fc5760018160080160146101000a81548160ff0219169083600281111561088757fe5b02179055508060080160009054906101000a900473ffffffffffffffffffffffffffffffffffffffff1673ffffffffffffffffffffffffffffffffffffffff166108fc349081150290604051600060405180830381858888f193505050501580156108f6573d6000803e3d6000fd5b50610923565b60028160080160146101000a81548160ff0219169083600281111561091d57fe5b02179055505b5b5050565b61093061108e565b6004600084815260200190815260200160002060405180610140016040529081600082015481526020016001820154815260200160028201548152602001600382018054600181600116156101000203166002900480601f016020809104026020016040519081016040528092919081815260200182805460018160011615610100020316600290048015610a065780601f106109db57610100808354040283529160200191610a06565b820191906000526020600020905b8154815290600101906020018083116109e957829003601f168201915b50505050508152602001600482018054600181600116156101000203166002900480601f016020809104026020016040519081016040528092919081815260200182805460018160011615610100020316600290048015610aa85780601f10610a7d57610100808354040283529160200191610aa8565b820191906000526020600020905b815481529060010190602001808311610a8b57829003601f168201915b505050505081526020016005820154815260200160068201548152602001600782015481526020016008820160009054906101000a900473ffffffffffffffffffffffffffffffffffffffff1673ffffffffffffffffffffffffffffffffffffffff1673ffffffffffffffffffffffffffffffffffffffff1681526020016008820160149054906101000a900460ff166002811115610b4357fe5b6002811115610b4e57fe5b8152505090506000600190508160a00151421015610bb7576040517f08c379a000000000000000000000000000000000000000000000000000000000815260040180806020018281038252602c815260200180611215602c913960400191505060405180910390fd5b8160c00151421115610c14576040517f08c379a000000000000000000000000000000000000000000000000000000000815260040180806020018281038252602c815260200180611241602c913960400191505060405180910390fd5b60008090505b600154811015610cc5573373ffffffffffffffffffffffffffffffffffffffff166003600083815260200190815260200160002060000160009054906101000a900473ffffffffffffffffffffffffffffffffffffffff1673ffffffffffffffffffffffffffffffffffffffff16148015610caa5750846003600083815260200190815260200160002060010154145b15610cb85760009150610cc5565b8080600101915050610c1a565b5060018114610d3c576040517f08c379a00000000000000000000000000000000000000000000000000000000081526004018080602001828103825260168152602001807f796f75206861766520616c726561647920766f7465640000000000000000000081525060200191505060405180910390fd5b610d44611102565b60405180606001604052803373ffffffffffffffffffffffffffffffffffffffff168152602001868152602001600180811115610d7d57fe5b81525090506001841415610dd857600081604001906001811115610d9d57fe5b90816001811115610daa57fe5b8152505060016004600087815260200190815260200160002060010160008282540192505081905550610dfe565b600160046000878152602001908152602001600020600201600082825401925050819055505b8060036000600154815260200190815260200160002060008201518160000160006101000a81548173ffffffffffffffffffffffffffffffffffffffff021916908373ffffffffffffffffffffffffffffffffffffffff1602179055506020820151816001015560408201518160020160006101000a81548160ff02191690836001811115610e8957fe5b0217905550905050600180600082825401925050819055505050505050565b818111610f00576040517f08c379a000000000000000000000000000000000000000000000000000000000815260040180806020018281038252602b8152602001806111ea602b913960400191505060405180910390fd5b610f0861108e565b60405180610140016040528060005481526020016000815260200160008152602001868152602001858152602001848152602001838152602001600081526020013373ffffffffffffffffffffffffffffffffffffffff16815260200160006002811115610f7257fe5b81525090508060046000805481526020019081526020016000206000820151816000015560208201518160010155604082015181600201556060820151816003019080519060200190610fc6929190611144565b506080820151816004019080519060200190610fe3929190611144565b5060a0820151816005015560c0820151816006015560e082015181600701556101008201518160080160006101000a81548173ffffffffffffffffffffffffffffffffffffffff021916908373ffffffffffffffffffffffffffffffffffffffff1602179055506101208201518160080160146101000a81548160ff0219169083600281111561106f57fe5b0217905550905050600160008082825401925050819055505050505050565b6040518061014001604052806000815260200160008152602001600081526020016060815260200160608152602001600081526020016000815260200160008152602001600073ffffffffffffffffffffffffffffffffffffffff168152602001600060028111156110fc57fe5b81525090565b6040518060600160405280600073ffffffffffffffffffffffffffffffffffffffff168152602001600081526020016000600181111561113e57fe5b81525090565b828054600181600116156101000203166002900490600052602060002090601f016020900481019282601f1061118557805160ff19168380011785556111b3565b828001600101855582156111b3579182015b828111156111b2578251825591602001919060010190611197565b5b5090506111c091906111c4565b5090565b6111e691905b808211156111e25760008160009055506001016111ca565b5090565b9056fe53746172742074696d652073686f756c64206265206561726c696572207468616e20656e642074696d652e43757272656e742074696d652073686f756c64206265206c61746572207468616e2073746172742074696d6543757272656e742074696d652073686f756c64206265206561726c696572207468616e20656e642074696d65a265627a7a72315820b0847dd45e7783fc898e0c5a7468fb154b479b476cf4f13a944b39967ec796d264736f6c63430005100032",
  "source": "pragma solidity >=0.4.22 <0.6.0;\r\n\r\ncontract demo{\r\n   enum ProposalStatus { Continuing , Agree , Oppose}\r\n   enum VoteResult{Agree,Oppose}\r\n   struct Proposal{\r\n        uint id;\r\n        uint agreed;\r\n        uint opposed;\r\n        string name;\r\n        string description;\r\n        uint StartTime;\r\n        uint EndTime;\r\n        uint tot;\r\n        address payable proposer;\r\n        ProposalStatus prostatus;\r\n   }\r\n   struct Vote{\r\n       address voter;\r\n       uint proposalid;\r\n       VoteResult result;\r\n   }\r\n   \r\n   uint public proIndex;\r\n   uint public voteIndex;\r\n   mapping (uint => address[]) public proposalvote; \r\n   mapping (uint => Vote) public votes;\r\n   mapping (uint => Proposal) public proposals;\r\n   \r\n   constructor() payable public{\r\n        proIndex = 0;\r\n        voteIndex = 0;\r\n   }\r\n   \r\n   function addProposal(string memory _name, string memory _description, \r\n   uint _starttime , uint _endtime)payable public{\r\n       require(_endtime>_starttime,\"Start time should be earlier than end time.\");\r\n       Proposal memory pro = Proposal(proIndex,0,0,_name,_description,\r\n       _starttime,_endtime,0,msg.sender,ProposalStatus.Continuing);\r\n       proposals[proIndex] = pro;\r\n       proIndex += 1;\r\n   }\r\n   \r\n   function check(uint _proid) payable public{\r\n       require(proposals[_proid].prostatus==ProposalStatus.Continuing);\r\n       Proposal storage pro = proposals[_proid];\r\n       if (pro.EndTime<now){\r\n           if (pro.agreed>pro.opposed){\r\n               pro.prostatus = ProposalStatus.Agree;\r\n               pro.proposer.transfer(msg.value);\r\n           }\r\n           else{\r\n               pro.prostatus = ProposalStatus.Oppose;\r\n           }\r\n       }\r\n   }\r\n   function vote(uint _proid, uint _result)payable public{\r\n       Proposal memory pro = proposals[_proid];\r\n       uint label=1;\r\n       require(now >= pro.StartTime,\"Current time should be later than start time\");\r\n       require(now <= pro.EndTime,\"Current time should be earlier than end time\");\r\n       for (uint i=0;i<voteIndex;i++){\r\n           if (votes[i].voter==msg.sender && votes[i].proposalid==_proid){\r\n               label=0;\r\n               break;\r\n           }\r\n       }\r\n       require(label==1,\"you have already voted\");\r\n            Vote memory vote = Vote(msg.sender,_proid,VoteResult.Oppose);\r\n            if (_result==1){\r\n                vote.result = VoteResult.Agree;\r\n                proposals[_proid].agreed += 1;\r\n            }\r\n            else{\r\n                proposals[_proid].opposed += 1;\r\n            }\r\n           votes[voteIndex] = vote;\r\n           voteIndex += 1;\r\n       \r\n   }\r\n   function getDate() public view returns(uint ){\r\n        return now;\r\n    }\r\n}",
  "sourcePath": "D:\\blockchaindemo\\contract\\contracts\\demo.sol",
  "compiler": {
    "name": "solc",
    "version": "0.5.16+commit.9c3226ce.Emscripten.clang"
  },
  "schemaVersion": "3.4.3",
  "updatedAt": "2022-11-01T10:48:13.102Z",
  "networkType": "ethereum",
  "devdoc": {
    "methods": {}
  },
  "userdoc": {
    "methods": {}
  }
}